{
  "contractName": "Voting",
  "abi": [
    {
      "inputs": [],
      "stateMutability": "nonpayable",
      "type": "constructor"
    },
    {
      "inputs": [
        {
          "internalType": "uint256",
          "name": "",
          "type": "uint256"
        }
      ],
      "name": "candidates",
      "outputs": [
        {
          "internalType": "string",
          "name": "name",
          "type": "string"
        },
        {
          "internalType": "uint256",
          "name": "id",
          "type": "uint256"
        },
        {
          "internalType": "uint256",
          "name": "voteCount",
          "type": "uint256"
        }
      ],
      "stateMutability": "view",
      "type": "function",
      "constant": true
    },
    {
      "inputs": [],
      "name": "owner",
      "outputs": [
        {
          "internalType": "address",
          "name": "",
          "type": "address"
        }
      ],
      "stateMutability": "view",
      "type": "function",
      "constant": true
    },
    {
      "inputs": [
        {
          "internalType": "uint256",
          "name": "",
          "type": "uint256"
        }
      ],
      "name": "registeredVoterIds",
      "outputs": [
        {
          "internalType": "bool",
          "name": "",
          "type": "bool"
        }
      ],
      "stateMutability": "view",
      "type": "function",
      "constant": true
    },
    {
      "inputs": [
        {
          "internalType": "uint256",
          "name": "",
          "type": "uint256"
        }
      ],
      "name": "voters",
      "outputs": [
        {
          "internalType": "string",
          "name": "name",
          "type": "string"
        },
        {
          "internalType": "uint256",
          "name": "voterId",
          "type": "uint256"
        },
        {
          "internalType": "bool",
          "name": "hasVoted",
          "type": "bool"
        }
      ],
      "stateMutability": "view",
      "type": "function",
      "constant": true
    },
    {
      "inputs": [
        {
          "internalType": "string",
          "name": "_name",
          "type": "string"
        },
        {
          "internalType": "uint256",
          "name": "_voterId",
          "type": "uint256"
        }
      ],
      "name": "registerVoter",
      "outputs": [],
      "stateMutability": "nonpayable",
      "type": "function"
    },
    {
      "inputs": [
        {
          "internalType": "uint256",
          "name": "_voterId",
          "type": "uint256"
        },
        {
          "internalType": "uint256",
          "name": "_candidateId",
          "type": "uint256"
        }
      ],
      "name": "vote",
      "outputs": [],
      "stateMutability": "nonpayable",
      "type": "function"
    },
    {
      "inputs": [
        {
          "internalType": "uint256",
          "name": "_candidateId",
          "type": "uint256"
        }
      ],
      "name": "getVoteCount",
      "outputs": [
        {
          "internalType": "uint256",
          "name": "",
          "type": "uint256"
        }
      ],
      "stateMutability": "view",
      "type": "function",
      "constant": true
    },
    {
      "inputs": [],
      "name": "getCandidates",
      "outputs": [
        {
          "components": [
            {
              "internalType": "string",
              "name": "name",
              "type": "string"
            },
            {
              "internalType": "uint256",
              "name": "id",
              "type": "uint256"
            },
            {
              "internalType": "uint256",
              "name": "voteCount",
              "type": "uint256"
            }
          ],
          "internalType": "struct Voting.Candidate[]",
          "name": "",
          "type": "tuple[]"
        }
      ],
      "stateMutability": "view",
      "type": "function",
      "constant": true
    }
  ],
  "bytecode": "0x60806040523480156200001157600080fd5b50336000806101000a81548173ffffffffffffffffffffffffffffffffffffffff021916908373ffffffffffffffffffffffffffffffffffffffff160217905550600360405180606001604052806040518060400160405280600381526020017f424a500000000000000000000000000000000000000000000000000000000000815250815260200160008152602001600081525090806001815401808255809150506001900390600052602060002090600302016000909190919091506000820151816000019080519060200190620000ed92919062000320565b5060208201518160010155604082015181600201555050600360405180606001604052806040518060400160405280600881526020017f436f6e67726573730000000000000000000000000000000000000000000000008152508152602001600181526020016000815250908060018154018082558091505060019003906000526020600020906003020160009091909190915060008201518160000190805190602001906200019f92919062000320565b5060208201518160010155604082015181600201555050600360405180606001604052806040518060400160405280600381526020017f41415000000000000000000000000000000000000000000000000000000000008152508152602001600281526020016000815250908060018154018082558091505060019003906000526020600020906003020160009091909190915060008201518160000190805190602001906200025192919062000320565b5060208201518160010155604082015181600201555050600360405180606001604052806040518060400160405280600481526020017f4e4f5441000000000000000000000000000000000000000000000000000000008152508152602001600381526020016000815250908060018154018082558091505060019003906000526020600020906003020160009091909190915060008201518160000190805190602001906200030392919062000320565b506020820151816001015560408201518160020155505062000435565b8280546200032e90620003d0565b90600052602060002090601f0160209004810192826200035257600085556200039e565b82601f106200036d57805160ff19168380011785556200039e565b828001600101855582156200039e579182015b828111156200039d57825182559160200191906001019062000380565b5b509050620003ad9190620003b1565b5090565b5b80821115620003cc576000816000905550600101620003b2565b5090565b60006002820490506001821680620003e957607f821691505b602082108114156200040057620003ff62000406565b5b50919050565b7f4e487b7100000000000000000000000000000000000000000000000000000000600052602260045260246000fd5b6111e980620004456000396000f3fe608060405234801561001057600080fd5b50600436106100885760003560e01c8063b2c2f2e81161005b578063b2c2f2e81461012b578063b384abef1461015b578063da58c7d914610177578063e661ea5f146101a957610088565b806306a49fce1461008d5780633477ee2e146100ab5780638da5cb5b146100dd578063935f6569146100fb575b600080fd5b6100956101c5565b6040516100a29190610d91565b60405180910390f35b6100c560048036038101906100c091906109e4565b6102ca565b6040516100d493929190610e0c565b60405180910390f35b6100e561038c565b6040516100f29190610d76565b60405180910390f35b610115600480360381019061011091906109e4565b6103b0565b6040516101229190610db3565b60405180910390f35b610145600480360381019061014091906109e4565b6103d0565b6040516101529190610f0a565b60405180910390f35b61017560048036038101906101709190610a0d565b61046c565b005b610191600480360381019061018c91906109e4565b610601565b6040516101a093929190610dce565b60405180910390f35b6101c360048036038101906101be9190610990565b6106c0565b005b60606003805480602002602001604051908101604052809291908181526020016000905b828210156102c1578382906000526020600020906003020160405180606001604052908160008201805461021c906110cc565b80601f0160208091040260200160405190810160405280929190818152602001828054610248906110cc565b80156102955780601f1061026a57610100808354040283529160200191610295565b820191906000526020600020905b81548152906001019060200180831161027857829003601f168201915b5050505050815260200160018201548152602001600282015481525050815260200190600101906101e9565b50505050905090565b600381815481106102da57600080fd5b90600052602060002090600302016000915090508060000180546102fd906110cc565b80601f0160208091040260200160405190810160405280929190818152602001828054610329906110cc565b80156103765780601f1061034b57610100808354040283529160200191610376565b820191906000526020600020905b81548152906001019060200180831161035957829003601f168201915b5050505050908060010154908060020154905083565b60008054906101000a900473ffffffffffffffffffffffffffffffffffffffff1681565b60026020528060005260406000206000915054906101000a900460ff1681565b60006003805490508210610419576040517f08c379a000000000000000000000000000000000000000000000000000000000815260040161041090610eea565b60405180910390fd5b60038281548110610453577f4e487b7100000000000000000000000000000000000000000000000000000000600052603260045260246000fd5b9060005260206000209060030201600201549050919050565b60006001600084815260200190815260200160002090506002600084815260200190815260200160002060009054906101000a900460ff166104e3576040517f08c379a00000000000000000000000000000000000000000000000000000000081526004016104da90610e8a565b60405180910390fd5b8060020160009054906101000a900460ff1615610535576040517f08c379a000000000000000000000000000000000000000000000000000000000815260040161052c90610eaa565b60405180910390fd5b600380549050821061057c576040517f08c379a000000000000000000000000000000000000000000000000000000000815260040161057390610eea565b60405180910390fd5b60018160020160006101000a81548160ff0219169083151502179055506001600383815481106105d5577f4e487b7100000000000000000000000000000000000000000000000000000000600052603260045260246000fd5b906000526020600020906003020160020160008282546105f59190610fec565b92505081905550505050565b6001602052806000526040600020600091509050806000018054610624906110cc565b80601f0160208091040260200160405190810160405280929190818152602001828054610650906110cc565b801561069d5780601f106106725761010080835404028352916020019161069d565b820191906000526020600020905b81548152906001019060200180831161068057829003601f168201915b5050505050908060010154908060020160009054906101000a900460ff16905083565b6002600082815260200190815260200160002060009054906101000a900460ff1615610721576040517f08c379a000000000000000000000000000000000000000000000000000000000815260040161071890610e6a565b60405180910390fd5b6000825111801561073457506014825111155b610773576040517f08c379a000000000000000000000000000000000000000000000000000000000815260040161076a90610eca565b60405180910390fd5b6001811015801561078657506103e78111155b6107c5576040517f08c379a00000000000000000000000000000000000000000000000000000000081526004016107bc90610e4a565b60405180910390fd5b604051806060016040528083815260200182815260200160001515815250600160008381526020019081526020016000206000820151816000019080519060200190610812929190610870565b506020820151816001015560408201518160020160006101000a81548160ff02191690831515021790555090505060016002600083815260200190815260200160002060006101000a81548160ff0219169083151502179055505050565b82805461087c906110cc565b90600052602060002090601f01602090048101928261089e57600085556108e5565b82601f106108b757805160ff19168380011785556108e5565b828001600101855582156108e5579182015b828111156108e45782518255916020019190600101906108c9565b5b5090506108f291906108f6565b5090565b5b8082111561090f5760008160009055506001016108f7565b5090565b600061092661092184610f56565b610f25565b90508281526020810184848401111561093e57600080fd5b61094984828561108a565b509392505050565b600082601f83011261096257600080fd5b8135610972848260208601610913565b91505092915050565b60008135905061098a8161119c565b92915050565b600080604083850312156109a357600080fd5b600083013567ffffffffffffffff8111156109bd57600080fd5b6109c985828601610951565b92505060206109da8582860161097b565b9150509250929050565b6000602082840312156109f657600080fd5b6000610a048482850161097b565b91505092915050565b60008060408385031215610a2057600080fd5b6000610a2e8582860161097b565b9250506020610a3f8582860161097b565b9150509250929050565b6000610a558383610d08565b905092915050565b610a6681611042565b82525050565b6000610a7782610f96565b610a818185610fb9565b935083602082028501610a9385610f86565b8060005b85811015610acf5784840389528151610ab08582610a49565b9450610abb83610fac565b925060208a01995050600181019050610a97565b50829750879550505050505092915050565b610aea81611054565b82525050565b6000610afb82610fa1565b610b058185610fca565b9350610b15818560208601611099565b610b1e8161118b565b840191505092915050565b6000610b3482610fa1565b610b3e8185610fdb565b9350610b4e818560208601611099565b610b578161118b565b840191505092915050565b6000610b6f602383610fdb565b91507f566f746572204944206d7573742062652077697468696e2072616e676520312d60008301527f39393900000000000000000000000000000000000000000000000000000000006020830152604082019050919050565b6000610bd5601883610fdb565b91507f566f74657220616c7265616479207265676973746572656400000000000000006000830152602082019050919050565b6000610c15601483610fdb565b91507f566f746572206e6f7420726567697374657265640000000000000000000000006000830152602082019050919050565b6000610c55601783610fdb565b91507f566f7465722068617320616c726561647920766f7465640000000000000000006000830152602082019050919050565b6000610c95601383610fdb565b91507f496e76616c6964206e616d65206c656e677468000000000000000000000000006000830152602082019050919050565b6000610cd5601483610fdb565b91507f496e76616c69642063616e6469646174652049440000000000000000000000006000830152602082019050919050565b60006060830160008301518482036000860152610d258282610af0565b9150506020830151610d3a6020860182610d58565b506040830151610d4d6040860182610d58565b508091505092915050565b610d6181611080565b82525050565b610d7081611080565b82525050565b6000602082019050610d8b6000830184610a5d565b92915050565b60006020820190508181036000830152610dab8184610a6c565b905092915050565b6000602082019050610dc86000830184610ae1565b92915050565b60006060820190508181036000830152610de88186610b29565b9050610df76020830185610d67565b610e046040830184610ae1565b949350505050565b60006060820190508181036000830152610e268186610b29565b9050610e356020830185610d67565b610e426040830184610d67565b949350505050565b60006020820190508181036000830152610e6381610b62565b9050919050565b60006020820190508181036000830152610e8381610bc8565b9050919050565b60006020820190508181036000830152610ea381610c08565b9050919050565b60006020820190508181036000830152610ec381610c48565b9050919050565b60006020820190508181036000830152610ee381610c88565b9050919050565b60006020820190508181036000830152610f0381610cc8565b9050919050565b6000602082019050610f1f6000830184610d67565b92915050565b6000604051905081810181811067ffffffffffffffff82111715610f4c57610f4b61115c565b5b8060405250919050565b600067ffffffffffffffff821115610f7157610f7061115c565b5b601f19601f8301169050602081019050919050565b6000819050602082019050919050565b600081519050919050565b600081519050919050565b6000602082019050919050565b600082825260208201905092915050565b600082825260208201905092915050565b600082825260208201905092915050565b6000610ff782611080565b915061100283611080565b9250827fffffffffffffffffffffffffffffffffffffffffffffffffffffffffffffffff03821115611037576110366110fe565b5b828201905092915050565b600061104d82611060565b9050919050565b60008115159050919050565b600073ffffffffffffffffffffffffffffffffffffffff82169050919050565b6000819050919050565b82818337600083830152505050565b60005b838110156110b757808201518184015260208101905061109c565b838111156110c6576000848401525b50505050565b600060028204905060018216806110e457607f821691505b602082108114156110f8576110f761112d565b5b50919050565b7f4e487b7100000000000000000000000000000000000000000000000000000000600052601160045260246000fd5b7f4e487b7100000000000000000000000000000000000000000000000000000000600052602260045260246000fd5b7f4e487b7100000000000000000000000000000000000000000000000000000000600052604160045260246000fd5b6000601f19601f8301169050919050565b6111a581611080565b81146111b057600080fd5b5056fea264697066735822122006282c1a3e04f3aec1832c968a244141c4035a52d98aa45e941b373f2fffd9fe64736f6c63430008000033",
  "immutableReferences": {},
  "source": "// SPDX-License-Identifier: MIT\r\npragma solidity ^0.8.0;\r\n\r\ncontract Voting {\r\n    struct Voter {\r\n        string name;\r\n        uint voterId;\r\n        bool hasVoted;\r\n    }\r\n\r\n    struct Candidate {\r\n        string name;\r\n        uint id;\r\n        uint voteCount;\r\n    }\r\n\r\n    address public owner;\r\n    mapping(uint => Voter) public voters; // Maps voter ID to Voter struct\r\n    mapping(uint => bool) public registeredVoterIds; // Track unique voter IDs\r\n    Candidate[] public candidates; // Array of candidates\r\n\r\n    modifier onlyOwner() {\r\n        require(msg.sender == owner, \"Only owner can perform this action\");\r\n        _;\r\n    }\r\n\r\n    constructor() {\r\n        owner = msg.sender;\r\n        candidates.push(Candidate(\"BJP\", 0, 0));\r\n        candidates.push(Candidate(\"Congress\", 1, 0));\r\n        candidates.push(Candidate(\"AAP\", 2, 0));\r\n        candidates.push(Candidate(\"NOTA\", 3, 0));\r\n    }\r\n\r\n    function registerVoter(string memory _name, uint _voterId) public {\r\n        require(!registeredVoterIds[_voterId], \"Voter already registered\");\r\n        require(bytes(_name).length > 0 && bytes(_name).length <= 20, \"Invalid name length\");\r\n        require(_voterId >= 1 && _voterId <= 999, \"Voter ID must be within range 1-999\");\r\n\r\n        voters[_voterId] = Voter(_name, _voterId, false);\r\n        registeredVoterIds[_voterId] = true;\r\n    }\r\n\r\n    function vote(uint _voterId, uint _candidateId) public {\r\n        Voter storage voter = voters[_voterId];\r\n        require(registeredVoterIds[_voterId], \"Voter not registered\");\r\n        require(!voter.hasVoted, \"Voter has already voted\");\r\n        require(_candidateId < candidates.length, \"Invalid candidate ID\");\r\n\r\n        voter.hasVoted = true;\r\n        candidates[_candidateId].voteCount += 1;\r\n    }\r\n\r\n    function getVoteCount(uint _candidateId) public view returns (uint) {\r\n        require(_candidateId < candidates.length, \"Invalid candidate ID\");\r\n        return candidates[_candidateId].voteCount;\r\n    }\r\n\r\n    function getCandidates() public view returns (Candidate[] memory) {\r\n        return candidates;\r\n    }\r\n}\r\n",
  "sourcePath": "C:\\C_Drive\\Decentralized_Voting_System\\contracts\\Voting.sol",
  "compiler": {
    "name": "solc",
    "version": "0.8.0+commit.c7dfd78e.Emscripten.clang"
  },
  "schemaVersion": "3.4.16",
  "updatedAt": "2024-11-21T10:11:05.445Z",
  "networkType": "ethereum",
  "devdoc": {
    "kind": "dev",
    "methods": {},
    "version": 1
  },
  "userdoc": {
    "kind": "user",
    "methods": {},
    "version": 1
  }
}